:020000040000FA
:100000000C9462000C948A000C948A000C948A0070
:100010000C948A000C948A000C948A000C940506B7
:100020000C948A000C948A000C948A000C94490564
:100030000C948A000C948A000C948A000C948A0018
:100040000C94FF040C948A000C948A000C948A008F
:100050000C948A000C948A000C948A000C948A00F8
:100060000C948A000C948A000000000023002600F3
:10007000290000000000240027002A0000000000E2
:10008000250028002B0004040404040404040202D4
:100090000202020203030303030301020408102007
:1000A0004080010204081020010204081020000012
:1000B0000008000201000003040700000000000027
:1000C0000000CF0911241FBECFEFD8E0DEBFCDBFA7
:1000D00011E0A0E0B1E0E8E2F5E102C005900D9288
:1000E000AE35B107D9F721E0AEE5B1E001C01D9210
:1000F000AE3AB207E1F710E0C2E6D0E004C02197C3
:10010000FE010E948C0AC136D107C9F70E942E0752
:100110000C94920A0C9400008F929F92AF92BF921F
:10012000FF920F931F93CF93DF93F09099012BE0F1
:100130002F1508F44CC020919B0108E512E0021B2A
:10014000110927FD1395000F111F000F111F20919A
:100150009A01C8E8D0E0C21BD10927FDD395CC0F86
:10016000DD1FCC0FDD1F4E010D2E000CAA08BB08B1
:100170009801012E000C440B550B281939094A0926
:100180005B09DC010E94470A24EB30E040E050E0CC
:100190000E941D0A820E931EA41EB51E8C169D067B
:1001A0002CF0E801801691060CF4E4012297CC0FA4
:1001B000DD1F2FB7F8948F2D90E0FC01EE0FFF1F8D
:1001C000E80FF91FEB58FE4FD283C1832FBFDF9199
:1001D000CF911F910F91FF90BF90AF909F908F9004
:1001E0000895AF92BF92CF92DF92EF92FF920F935A
:1001F0001F93CF93DF936C017B018B01040F151FBD
:10020000EB015E01AE18BF08C017D10759F0699124
:10021000D601ED91FC910190F081E02DC601099588
:10022000892B79F7C501DF91CF911F910F91FF9035
:10023000EF90DF90CF90BF90AF900895833081F022
:1002400028F4813099F08230A9F008958730A9F020
:100250008830C9F08430B1F4809180008F7D03C074
:10026000809180008F7780938000089584B58F7788
:1002700084BD089584B58F7DFBCF8091B0008F77CA
:100280008093B00008958091B0008F7DF9CF1F93C7
:10029000CF93DF93282F30E0F901E255FF4F84918F
:1002A000F901E656FF4FD491F901EA57FF4FC49187
:1002B000CC23A9F0162F81110E941E01EC2FF0E033
:1002C000EE0FFF1FE458FF4FA591B4918FB7F8943C
:1002D000EC91111108C0D095DE23DC938FBFDF9124
:1002E000CF911F910895DE2BF8CFFF920F931F93AC
:1002F000CF93DF93082F162FF42EC22FD8E06C2F48
:10030000F11015C06170802F0E944701C69561E011
:10031000812F0E94470160E0812F0E944701D15048
:1003200071F7DF91CF911F910F91FF900895661F94
:100330006627661F802F0E944701CC0FE8CFCF931E
:10034000DF9390E0FC01E656FF4F24918A579F4FC0
:10035000FC0184918823D1F090E0880F991FFC0163
:10036000EE58FF4FA591B491FC01E458FF4FC591A1
:10037000D49161110EC09FB7F8948C91E22FE09553
:100380008E238C932881E223E8839FBFDF91CF9156
:1003900008958FB7F894EC91E22BEC938FBFF6CFD2
:1003A0008E50806480937C0080917A00806480937A
:1003B0007A0080917A0086FDFCCF80917800909140
:1003C000790008953FB7F89480916B0190916C018A
:1003D000A0916D01B0916E0126B5A89B05C02F3F7D
:1003E00019F00196A11DB11D3FBFBA2FA92F982F5B
:1003F0008827BC01CD01620F711D811D911D42E056
:10040000660F771F881F991F4A95D1F708958F921D
:100410009F92AF92BF92CF92DF92EF92FF924B01E9
:100420005C010E94E2016B017C010E94E2016C19F7
:100430007D098E099F09683E734081059105A8F3E7
:1004400021E0821A9108A108B10888EEC80E83E065
:10045000D81EE11CF11C81149104A104B10429F7F8
:10046000FF90EF90DF90CF90BF90AF909F908F90D4
:100470000895CF93DF93EC0160E08E810E944701E5
:10048000298941E06D818C810E94750161E08E8136
:10049000DF91CF910C944701089590E080E008959A
:1004A000892B79F41092800082E080938100109271
:1004B000850010928400B19A80916F0082608093D1
:1004C0006F000895809199018C3008F043C061E07D
:1004D0008BE00E949F0180919901282F30E0F90163
:1004E000EE0FFF1FE20FF31FEB58FE4F9081907C41
:1004F0009B60908310929A0110929B012CE0622FD6
:100500000E94800A829FB001112430E020E0AB01FC
:10051000420F531FFA01EE0FFF1FE40FF51FEB58B8
:10052000FE4F908196FD08C02F5F3F4F2C30310564
:1005300071F790E00E945002E09199018E2F90E0B7
:10054000FC01EE0FFF1FE80FF91FEB58FE4F8081F3
:100550008064808380919901089560E086E00E9424
:1005600047012091730140E067E085E00E9475013A
:1005700020916F0140E067E085E00E94750161E035
:1005800086E00C9447010E94620284E190E00E94A0
:100590008C006CE370E080E090E00E9407028EE146
:1005A00090E00E948C006CE370E080E090E00E949C
:1005B000070288E290E00E948C006CE370E080E02B
:1005C00090E00E94070282E390E00E948C006CE3BE
:1005D00070E080E090E00E9407028CE390E00E94CF
:1005E0008C006CE370E080E090E00E94070286E4FB
:1005F00090E00E948C006CE370E080E090E00E944C
:10060000070280E590E00E948C006CE370E080E0DF
:1006100090E00E9407028AE590E00E948C006CE363
:1006200070E080E090E00E94070284E690E00E9483
:100630008C006CE370E080E090E00E940702E091A3
:1006400099018E2F90E0FC01EE0FFF1FE80FF91FBC
:10065000EB58FE4F80818F7B808308950E94620259
:100660008AE590E00E948C006CE370E080E090E00E
:100670000E94070280E590E00E948C006CE370E02D
:1006800080E090E00E94070286E490E00E948C00E7
:100690006CE370E080E090E00E9407028CE390E061
:1006A0000E948C006CE370E080E090E00E94070202
:1006B00082E390E00E948C006CE370E080E090E0C8
:1006C0000E94070288E290E00E948C006CE370E0D8
:1006D00080E090E00E9407028EE190E00E948C0092
:1006E0006CE370E080E090E00E94070284E190E01B
:1006F0000E948C006CE370E080E090E00E940702B2
:1007000090E080E00E948C006CE370E080E090E07C
:100710000E940702E09199018E2F90E0FC01EE0FFC
:10072000FF1FE80FF91FEB58FE4F80818F7B8083FE
:100730000895EF92FF920F931F93CF9380917301CF
:10074000877C8260809373010E94AD020CEB11E004
:1007500083E2E82EF12CC09173018C2F846080938A
:1007600073010E94AD02C7010197F1F7CB7FC093DF
:1007700073010E94AD02C7010197F1F70150110901
:1007800051F7CF911F910F91FF90EF900895EF9245
:10079000FF920F931F93CF9380917301857C809379
:1007A00073010E94AD020CEB11E083E2E82EF12C04
:1007B000C09173018C2F8460809373010E94AD02FD
:1007C000C7010197F1F7CB7FC09373010E94AD027F
:1007D000C7010197F1F70150110951F7CF911F910E
:1007E0000F91FF90EF900895FC0101900020E9F730
:1007F0003197AF01481B590BBC018CE991E00C9477
:10080000F100CF92DF92EF92FF92CF93DF93EC0152
:100810002989398581E090E0A0E0B0E004C0880F2C
:10082000991FAA1FBB1F3A95D2F760FF79C0822B90
:10083000898B29893A8581E090E0A0E0B0E004C08E
:10084000880F991FAA1FBB1F3A95D2F761FF6BC093
:10085000822B898B29893B8581E090E0A0E0B0E084
:1008600004C0880F991FAA1FBB1F3A95D2F762FFD9
:100870005DC0822B898B29893C8581E090E0A0E0D6
:10088000B0E004C0880F991FAA1FBB1F3A95D2F78A
:1008900063FF4FC0822B898BCE010E94390288856D
:1008A000C12CD12C7601C394A701960104C0220F5C
:1008B000331F441F551F8A95D2F7922F909589892F
:1008C0008923898BCE010E9439028885A701960170
:1008D00004C0220F331F441F551F8A95D2F7C90148
:1008E0002989822B898BCE010E943902888504C018
:1008F000CC0CDD1CEE1CFF1C8A95D2F7C0948989B4
:10090000C822C98ACE010E94390283EC90E0019787
:10091000F1F7DF91CF91FF90EF90DF90CF900895A6
:100920008095822385CF8095822393CF80958223E3
:10093000A1CF80958223AFCF1F93CF93DF93EC019C
:10094000162F29893F8181E090E0A0E0B0E004C04B
:10095000880F991FAA1FBB1F3A95D2F74423B1F005
:10096000822B898BCE010E943902612F70E084E0D6
:10097000759567958A95E1F7CE010E940104612F74
:10098000CE01DF91CF911F910C94010480958223B9
:10099000E8CFCF93DF9300D000D0CDB7DEB71A8277
:1009A000198290E49A839091A9019B83905C9C8327
:1009B0009091AA01961708F46FEFFE01E60FF11D62
:1009C0006181680F606840E08CE991E00F900F90C2
:1009D0000F900F90DF91CF910C949C0440E061E068
:1009E0008CE991E00E949C048BE39FE10197F1F771
:1009F000089541E00E949C0481E090E008951F92D8
:100A00000F920FB60F9211242F933F938F939F93C2
:100A1000AF93BF938091670190916801A0916901A4
:100A2000B0916A013091660123E0230F2D3758F50C
:100A30000196A11DB11D20936601809367019093DB
:100A40006801A0936901B0936A0180916B01909154
:100A50006C01A0916D01B0916E010196A11DB11DB7
:100A600080936B0190936C01A0936D01B0936E0124
:100A7000BF91AF919F918F913F912F910F900FBE9A
:100A80000F901F90189526E8230F0296A11DB11D07
:100A9000D2CF1F920F920FB60F9211242F933F9334
:100AA0004F935F936F937F938F939F93AF93BF9376
:100AB000CF93DF93EF93FF9380916501C091640121
:100AC000D0E087FF24C010928500109284008091AE
:100AD00065018F5F8093650180916501082E000C90
:100AE000990B8C179D0724F4809165018C30C4F11B
:100AF0008091840090918500049680349C4908F48C
:100B00007AC08091840090918500049676C080918F
:100B10006501082E000C990B8C179D07C4F6E09117
:100B200065018E2FEE0F990BFC01EE0FFF1FE80FF2
:100B3000F91FEB58FE4F808186FFC9CFE091650118
:100B40008E2FEE0F990BFC01EE0FFF1FE80FF91F20
:100B5000EB58FE4F808160E08F730E944701B7CF52
:100B60002091840030918500E09165018E2FEE0F79
:100B7000990BFC01EE0FFF1FE80FF91FEB58FE4F1A
:100B800081819281820F931F9093890080938800C6
:100B9000E09165018E2FEE0F990BFC01EE0FFF1F08
:100BA000E80FF91FEB58FE4F808186FF11C0E091DE
:100BB00065018E2FEE0F990BFC01EE0FFF1FE80F62
:100BC000F91FEB58FE4F808161E08F730E9447014F
:100BD000FF91EF91DF91CF91BF91AF919F918F9155
:100BE0007F916F915F914F913F912F910F900FBE29
:100BF0000F901F90189580E49CE990938900809352
:100C000088008FEF80936501E3CF1F920F920FB69C
:100C10000F9211243F924F925F926F927F928F9228
:100C20009F92AF92BF92CF92DF92EF92FF920F937B
:100C30001F932F933F934F935F936F937F938F9364
:100C40009F93AF93BF93CF93DF93EF93FF938090E6
:100C5000600190906101A0906201B0906301D501A4
:100C6000C401885A944EAF4FBF4F80936001909358
:100C70006101A0936201B09363010097A140B105A7
:100C800008F4A6C000915E0110915F0101151105E5
:100C900009F4DBC0509074015110D7C060E08CE0C3
:100CA0000E944701CFE0D0E0CE010197F1F761E06B
:100CB0008CE00E9447012197F1F761E082E00E94F9
:100CC000470160E084E00E944701C7E0D0E091EB7B
:100CD000692E90E0792E2DE9E22E20E0F22E39E8FF
:100CE000C32E30E0D32E61E082E00E944701F30181
:100CF0008491F7014490F6013490332009F48AC0BE
:100D000081110E941E01E32DF0E0EE0FFF1FE85954
:100D1000FF4FA591B4918C91482231E009F430E065
:100D2000832F0C2E01C0880F0A94EAF7582A60E03E
:100D300082E00E9447012197B0F65092710161E074
:100D400084E00E9447018EE00E94D001EC01909364
:100D50000501809304018FE00E94D0019C019093D3
:100D600003018093020180917001811117C0C83C7A
:100D700082E0D8070CF450C052FC05C080916F018E
:100D8000886180936F01283CF2E03F070CF451C06A
:100D9000809173018F7B806850FE54C00E94AD0229
:100DA000E8EA8E1AE4EE9E0AA108B108809260017A
:100DB00090926101A0926201B092630181E090E0A3
:100DC000012B11F090E080E090935F0180935E0131
:100DD000FF91EF91DF91CF91BF91AF919F918F9153
:100DE0007F916F915F914F913F912F911F910F9143
:100DF000FF90EF90DF90CF90BF90AF909F908F903B
:100E00007F906F905F904F903F900F900FBE0F902C
:100E10001F90189580E085CFC733D1400CF0B3CF39
:100E200053FCB1CF90916F01977F906190936F01C8
:100E3000AACF273331400CF0B1CF80917301806C81
:100E400051FCACCF80937301A9CF80916F018F7E4D
:100E500080936F01809173018F77F4CF789484B57C
:100E6000826084BD84B5816084BD85B5826085BDA6
:100E700085B5816085BD80916E00816080936E0034
:100E80001092810080918100826080938100809126
:100E900081008160809381008091800081608093D7
:100EA00080008091B10084608093B1008091B00097
:100EB00081608093B00080917A00846080937A0092
:100EC00080917A00826080937A0080917A008160BC
:100ED00080937A0080917A00806880937A001092E3
:100EE000C10010926F0181E08093730161E085E0A1
:100EF0000E949F0161E086E00E949F0161E087E01F
:100F00000E949F0160E085E00E94470160E086E06A
:100F10000E94470160E087E00E9447010E94AD0205
:100F200061E08CE00E949F0161E084E00E949F01EB
:100F300061E082E00E949F0160E083E00E949F01E7
:100F400061E082E00E94470161E08CE00E9447017D
:100F500064E670E080E090E00E9407021092730166
:100F600084E18093A90184E08093AA018093AB017E
:100F700082E08093AC018BE39DE00197F1F763E0A1
:100F80008CE991E00E940104CBE4D6E4CE01019704
:100F9000F1F763E08CE991E00E9401042197F1F7F9
:100FA00063E08CE991E00E94010483E592E00197FF
:100FB000F1F762E08CE991E00E9401048091AA01BE
:100FC00040E068E2823008F460E28CE991E00E943F
:100FD0009C046091AB01686040E08CE991E00E9464
:100FE0009C040E94EE046091AC01646040E08CE9D6
:100FF00091E00E949C0482E191E00E94F40361E090
:1010000088E00E94C9048EE191E00E94F40368EB3D
:101010007BE080E090E00E94070210927201F89459
:101020001092B0001092B1001092B2008FEF809336
:10103000B3008091B10088608093B1008091B100CD
:1010400081608093B1008091700082608093700015
:10105000789480916F01887180936F0180919901DC
:101060008C3008F043C061E08BE00E949F018091CA
:101070009901282F30E0F901EE0FFF1FE20FF31F57
:10108000EB58FE4F9081907C9B60908310929A0168
:1010900010929B012CE0622F0E94800A90E0829FB8
:1010A000B001112430E020E0AB01420F531FFA01E0
:1010B000EE0FFF1FE40FF51FEB58FE4F408146FD7A
:1010C00007C02F5F3F4F2C30310571F70E9450024F
:1010D000E09199018E2F90E0FC01EE0FFF1FE80FC9
:1010E000F91FEB58FE4F80818064808384E690E096
:1010F0000E948C006AEF70E080E090E00E9407029E
:10110000E09199018E2F90E0FC01EE0FFF1FE80F98
:10111000F91FEB58FE4F80818F7B80830E94C703AD
:10112000C3E2D0E034E0632E712C42E0842E912C97
:1011300053E0E52EF12CCC24C394D12C0FEF11E019
:1011400080E0A82E80E0B82E50907101809174014B
:10115000882309F486C0109274011093050100934E
:1011600004011093030100930201809173018160D7
:101170008093730144244394409272010E94AD0213
:101180000E94990360ED77E080E090E00E94070202
:101190000E942E0368EE73E080E090E00E94070258
:1011A0000E94C7034092700180916F018860809314
:1011B0006F018091730180648093730152FE29C096
:1011C00050FE3BC01092700168E873E180E090E04F
:1011D0000E9407020E94990360ED77E080E090E0B2
:1011E0000E9407020E94C30268EE73E080E090E074
:1011F0000E9407020E94C70360ED77E080E090E064
:101200000E940702A114B10409F49ECF0E940000BD
:1012100097CF10916F01812F806180936F010E94A1
:10122000AD02CE010197F1F71F7E10936F010E946E
:10123000AD02CE010197F1F7ECCF10917301812F30
:101240008068809373010E94AD02CE010197F1F78F
:101250001F77109373010E94AD02CE010197F1F741
:10126000ECCF54FA552450F8509274018091040147
:1012700090910501883C22E092070CF455C08091C2
:10128000000190910101892B21F01092010110922F
:1012900000018091020190910301883C22E09207B5
:1012A0000CF452C08091000190910101039721F04C
:1012B000F0920101E09200010E94EE0460E080E003
:1012C0000E94C90482E191E00E94F40361E080E0A1
:1012D0000E94C9048091000190910101009709F0DA
:1012E00043C086E291E00E94F40368EC70E080E085
:1012F00090E00E94070280917301909172019923FE
:1013000009F446C08E7F809373011092720164EFDE
:1013100071E080E090E00E9407020E94AD027092AE
:101320000101609200016ECF873391400CF0B1CF84
:101330008091000190910101019709F4AACFD09208
:101340000101C0920001A5CF873391400CF0B4CFCA
:101350008091000190910101029709F4ADCF909224
:10136000010180920001A8CF8130910519F487E333
:1013700091E0B9CF8330910519F487E491E0B3CFC0
:10138000029719F483E591E0AECF8EE191E0ABCF07
:1013900081608093730181E080937201B8CF1092D5
:1013A0009F0110929E018AE091E090939D018093AD
:1013B0009C018AE08093A00189E08093A10188E0EC
:1013C0008093A20181E08093A30182E08093A40135
:1013D00083E08093A50184E08093A60185E080935B
:1013E000A70186E08093A80161E08AE00E949F0146
:1013F00061E08091A1010E949F0161E08091A201C2
:101400000E949F01809164018C3098F491E0980FC4
:10141000909364018093990190E0FC01EE0FFF1F0F
:10142000E80FF91FEB58FE4F88EB9BE09283818316
:1014300008958FEF809399010895052E97FB1EF470
:1014400000940E94340A57FD07D00E944F0A07FCFF
:1014500003D04EF40C94340A509540953095219564
:101460003F4F4F4F5F4F08959095809570956195D0
:101470007F4F8F4F9F4F08950E94710AA59F900D37
:10148000B49F900DA49F800D911D11240895B7FF66
:101490000C943C0A0E943C0A821B930B0895A1E223
:1014A0001A2EAA1BBB1BFD010DC0AA1FBB1FEE1FDE
:1014B000FF1FA217B307E407F50720F0A21BB30B29
:1014C000E40BF50B661F771F881F991F1A9469F7A5
:1014D00060957095809590959B01AC01BD01CF0101
:1014E0000895A29FB001B39FC001A39F700D811DFD
:1014F0001124911DB29F700D811D1124911D08951D
:10150000991B79E004C0991F961708F0961B881F55
:101510007A95C9F780950895EE0FFF1F0590F49115
:10152000E02D0994F894FFCF0400FF01FF010000B3
:101530000000F904F1004D024C025669676F2773F1
:10154000204B6C6177004D27536865656E004368DA
:10155000617267696E6720466F72776172640052CC
:10156000657472656174696E67204261636B0047E0
:101570006F696E6720526967687400476F696E67AC
:06158000204C65667400BA
:107E0000112484B714BE81FFF0D085E080938100F7
:107E100082E08093C00088E18093C10086E0809377
:107E2000C20080E18093C4008EE0C9D0259A86E02C
:107E300020E33CEF91E0309385002093840096BBD3
:107E4000B09BFECF1D9AA8958150A9F7CC24DD24C4
:107E500088248394B5E0AB2EA1E19A2EF3E0BF2EE7
:107E6000A2D0813461F49FD0082FAFD0023811F036
:107E7000013811F484E001C083E08DD089C08234E0
:107E800011F484E103C0853419F485E0A6D080C0E4
:107E9000853579F488D0E82EFF2485D0082F10E0AE
:107EA000102F00270E291F29000F111F8ED06801E7
:107EB0006FC0863521F484E090D080E0DECF843638
:107EC00009F040C070D06FD0082F6DD080E0C81688
:107ED00080E7D80618F4F601B7BEE895C0E0D1E017
:107EE00062D089930C17E1F7F0E0CF16F0E7DF06D8
:107EF00018F0F601B7BEE89568D007B600FCFDCFD4
:107F0000A601A0E0B1E02C9130E011968C91119780
:107F100090E0982F8827822B932B1296FA010C0160
:107F200087BEE89511244E5F5F4FF1E0A038BF0790
:107F300051F7F601A7BEE89507B600FCFDCF97BE46
:107F4000E89526C08437B1F42ED02DD0F82E2BD052
:107F50003CD0F601EF2C8F010F5F1F4F84911BD097
:107F6000EA94F801C1F70894C11CD11CFA94CF0C13
:107F7000D11C0EC0853739F428D08EE10CD085E9AC
:107F80000AD08FE07ACF813511F488E018D01DD067
:107F900080E101D065CF982F8091C00085FFFCCF94
:107FA0009093C60008958091C00087FFFCCF809118
:107FB000C00084FD01C0A8958091C6000895E0E648
:107FC000F0E098E1908380830895EDDF803219F02E
:107FD00088E0F5DFFFCF84E1DECF1F93182FE3DFCA
:107FE0001150E9F7F2DF1F91089580E0E8DFEE27F6
:047FF000FF270994CA
:027FFE00040479
:00000001FF
