:100000000C9462000C948A000C948A000C948A0070
:100010000C948A000C948A000C948A000C9470064C
:100020000C948A000C948A000C948A000C94B405F9
:100030000C948A000C948A000C948A000C948A0018
:100040000C946A050C948A000C948A000C948A0023
:100050000C948A000C948A000C948A000C948A00F8
:100060000C948A000C948A000000000023002600F3
:10007000290000000000240027002A0000000000E2
:10008000250028002B0004040404040404040202D4
:100090000202020203030303030301020408102007
:1000A0004080010204081020010204081020000012
:1000B0000008000201000003040700000000000027
:1000C0000000D70911241FBECFEFD8E0DEBFCDBF9F
:1000D00011E0A0E0B1E0E8E3F5E102C005900D9287
:1000E000AE35B107D9F721E0AEE5B1E001C01D9210
:1000F000AE3AB207E1F710E0C2E6D0E004C02197C3
:10010000FE010E94940AC136D107C9F70E9439073F
:100110000C949A0A0C9400008F929F92AF92BF9217
:10012000FF920F931F93CF93DF93F09099012BE0F1
:100130002F1508F44CC020919B0108E512E0021B2A
:10014000110927FD1395000F111F000F111F20919A
:100150009A01C8E8D0E0C21BD10927FDD395CC0F86
:10016000DD1FCC0FDD1F4E010D2E000CAA08BB08B1
:100170009801012E000C440B550B281939094A0926
:100180005B09DC010E944F0A24EB30E040E050E0C4
:100190000E94250A820E931EA41EB51E8C169D0673
:1001A0002CF0E801801691060CF4E4012297CC0FA4
:1001B000DD1F2FB7F8948F2D90E0FC01EE0FFF1F8D
:1001C000E80FF91FEB58FE4FD283C1832FBFDF9199
:1001D000CF911F910F91FF90BF90AF909F908F9004
:1001E0000895AF92BF92CF92DF92EF92FF920F935A
:1001F0001F93CF93DF936C017B018B01040F151FBD
:10020000EB015E01AE18BF08C017D10759F0699124
:10021000D601ED91FC910190F081E02DC601099588
:10022000892B79F7C501DF91CF911F910F91FF9035
:10023000EF90DF90CF90BF90AF900895833081F022
:1002400028F4813099F08230A9F008958730A9F020
:100250008830C9F08430B1F4809180008F7D03C074
:10026000809180008F7780938000089584B58F7788
:1002700084BD089584B58F7DFBCF8091B0008F77CA
:100280008093B00008958091B0008F7DF9CF1F93C7
:10029000CF93DF93282F30E0F901E255FF4F84918F
:1002A000F901E656FF4FD491F901EA57FF4FC49187
:1002B000CC23A9F0162F81110E941E01EC2FF0E033
:1002C000EE0FFF1FE458FF4FA591B4918FB7F8943C
:1002D000EC91111108C0D095DE23DC938FBFDF9124
:1002E000CF911F910895DE2BF8CFFF920F931F93AC
:1002F000CF93DF93082F162FF42EC22FD8E06C2F48
:10030000F11015C06170802F0E944701C69561E011
:10031000812F0E94470160E0812F0E944701D15048
:1003200071F7DF91CF911F910F91FF900895661F94
:100330006627661F802F0E944701CC0FE8CFCF931E
:10034000DF9390E0FC01E656FF4F24918A579F4FC0
:10035000FC0184918823D1F090E0880F991FFC0163
:10036000EE58FF4FA591B491FC01E458FF4FC591A1
:10037000D49161110EC09FB7F8948C91E22FE09553
:100380008E238C932881E223E8839FBFDF91CF9156
:1003900008958FB7F894EC91E22BEC938FBFF6CFD2
:1003A0008E50806480937C0080917A00806480937A
:1003B0007A0080917A0086FDFCCF80917800909140
:1003C000790008953FB7F89480916B0190916C018A
:1003D000A0916D01B0916E0126B5A89B05C02F3F7D
:1003E00019F00196A11DB11D3FBFBA2FA92F982F5B
:1003F0008827BC01CD01620F711D811D911D42E056
:10040000660F771F881F991F4A95D1F708958F921D
:100410009F92AF92BF92CF92DF92EF92FF924B01E9
:100420005C010E94E2016B017C010E94E2016C19F7
:100430007D098E099F09683E734081059105A8F3E7
:1004400021E0821A9108A108B10888EEC80E83E065
:10045000D81EE11CF11C81149104A104B10429F7F8
:10046000FF90EF90DF90CF90BF90AF909F908F90D4
:100470000895CF93DF93EC0160E08E810E944701E5
:10048000298941E06D818C810E94750161E08E8136
:10049000DF91CF910C944701089590E080E008959A
:1004A000892B79F41092800082E080938100109271
:1004B000850010928400B19A80916F0082608093D1
:1004C0006F000895809199018C3008F043C061E07D
:1004D0008BE00E949F0180919901282F30E0F90163
:1004E000EE0FFF1FE20FF31FEB58FE4F9081907C41
:1004F0009B60908310929A0110929B012CE0622FD6
:100500000E94880A829FB001112430E020E0AB01F4
:10051000420F531FFA01EE0FFF1FE40FF51FEB58B8
:10052000FE4F908196FD08C02F5F3F4F2C30310564
:1005300071F790E00E945002E09199018E2F90E0B7
:10054000FC01EE0FFF1FE80FF91FEB58FE4F8081F3
:100550008064808380919901089560E086E00E9424
:1005600047012091730140E067E085E00E9475013A
:1005700020916F0140E067E085E00E94750161E035
:1005800086E00C9447010E94620284E190E00E94A0
:100590008C006CE370E080E090E00E9407028EE146
:1005A00090E00E948C006CE370E080E090E00E949C
:1005B000070288E290E00E948C006CE370E080E02B
:1005C00090E00E94070282E390E00E948C006CE3BE
:1005D00070E080E090E00E9407028CE390E00E94CF
:1005E0008C006CE370E080E090E00E94070286E4FB
:1005F00090E00E948C006CE370E080E090E00E944C
:10060000070280E590E00E948C006CE370E080E0DF
:1006100090E00E9407028AE590E00E948C006CE363
:1006200070E080E090E00E94070284E690E00E9483
:100630008C006CE370E080E090E00E940702E091A3
:1006400099018E2F90E0FC01EE0FFF1FE80FF91FBC
:10065000EB58FE4F80818F7B808308950E94620259
:100660008AE590E00E948C006CE370E080E090E00E
:100670000E94070280E590E00E948C006CE370E02D
:1006800080E090E00E94070286E490E00E948C00E7
:100690006CE370E080E090E00E9407028CE390E061
:1006A0000E948C006CE370E080E090E00E94070202
:1006B00082E390E00E948C006CE370E080E090E0C8
:1006C0000E94070288E290E00E948C006CE370E0D8
:1006D00080E090E00E9407028EE190E00E948C0092
:1006E0006CE370E080E090E00E94070284E190E01B
:1006F0000E948C006CE370E080E090E00E940702B2
:1007000090E080E00E948C006CE370E080E090E07C
:100710000E940702E09199018E2F90E0FC01EE0FFC
:10072000FF1FE80FF91FEB58FE4F80818F7B8083FE
:100730000895EF92FF920F931F93CF9380917301CF
:10074000877C8260809373010E94AD020CEB11E004
:1007500083E2E82EF12CC09173018C2F846080938A
:1007600073010E94AD02C7010197F1F7CB7FC093DF
:1007700073010E94AD02C7010197F1F70150110901
:1007800051F7CF911F910F91FF90EF900895EF9245
:10079000FF920F931F93CF9380917301857C809379
:1007A00073010E94AD020CEB11E083E2E82EF12C04
:1007B000C09173018C2F8460809373010E94AD02FD
:1007C000C7010197F1F7CB7FC09373010E94AD027F
:1007D000C7010197F1F70150110951F7CF911F910E
:1007E0000F91FF90EF900895FC0101900020E9F730
:1007F0003197AF01481B590BBC018CE991E00C9477
:10080000F100CF92DF92EF92FF92CF93DF93EC0152
:100810002989398581E090E0A0E0B0E004C0880F2C
:10082000991FAA1FBB1F3A95D2F760FF79C0822B90
:10083000898B29893A8581E090E0A0E0B0E004C08E
:10084000880F991FAA1FBB1F3A95D2F761FF6BC093
:10085000822B898B29893B8581E090E0A0E0B0E084
:1008600004C0880F991FAA1FBB1F3A95D2F762FFD9
:100870005DC0822B898B29893C8581E090E0A0E0D6
:10088000B0E004C0880F991FAA1FBB1F3A95D2F78A
:1008900063FF4FC0822B898BCE010E94390288856D
:1008A000C12CD12C7601C394A701960104C0220F5C
:1008B000331F441F551F8A95D2F7922F909589892F
:1008C0008923898BCE010E9439028885A701960170
:1008D00004C0220F331F441F551F8A95D2F7C90148
:1008E0002989822B898BCE010E943902888504C018
:1008F000CC0CDD1CEE1CFF1C8A95D2F7C0948989B4
:10090000C822C98ACE010E94390283EC90E0019787
:10091000F1F7DF91CF91FF90EF90DF90CF900895A6
:100920008095822385CF8095822393CF80958223E3
:10093000A1CF80958223AFCF1F93CF93DF93EC019C
:10094000162F29893F8181E090E0A0E0B0E004C04B
:10095000880F991FAA1FBB1F3A95D2F74423B1F005
:10096000822B898BCE010E943902612F70E084E0D6
:10097000759567958A95E1F7CE010E940104612F74
:10098000CE01DF91CF911F910C94010480958223B9
:10099000E8CFCF93DF9300D000D0CDB7DEB71A8277
:1009A000198290E49A839091A9019B83905C9C8327
:1009B0009091AA01961708F46FEFFE01E60FF11D62
:1009C0006181680F606840E08CE991E00F900F90C2
:1009D0000F900F90DF91CF910C949C0440E061E068
:1009E0008CE991E00E949C048BE39FE10197F1F771
:1009F000089541E00E949C0481E090E008959F9258
:100A0000AF92BF92CF92DF92EF92FF920F931F931C
:100A1000CF93DF9360E08CE00E944701CFE0D0E00D
:100A2000CE010197F1F761E08CE00E944701219728
:100A3000F1F761E082E00E94470160E084E00E94FB
:100A40004701C7E0D0E0B12C01EB10E09DE9E92EB1
:100A500090E0F92E29E8C22E20E0D22E61E082E05B
:100A60000E944701F8018491F701A490F601949047
:100A7000992071F181110E941E01E92DF0E0EE0F25
:100A8000FF1FE859FF4FA591B4918C91A82231E046
:100A900009F430E0832F0C2E01C0880F0A94EAF786
:100AA000B82A60E082E00E9447012197B8F6B09230
:100AB000710161E084E0DF91CF911F910F91FF9070
:100AC000EF90DF90CF90BF90AF909F900C94470134
:100AD00080E0E1CF1F920F920FB60F9211242F9357
:100AE0003F938F939F93AF93BF93809167019091B2
:100AF0006801A0916901B0916A013091660123E01B
:100B0000230F2D3758F50196A11DB11D20936601C5
:100B10008093670190936801A0936901B0936A0183
:100B200080916B0190916C01A0916D01B0916E016B
:100B30000196A11DB11D80936B0190936C01A09350
:100B40006D01B0936E01BF91AF919F918F913F91D5
:100B50002F910F900FBE0F901F90189526E8230F2E
:100B60000296A11DB11DD2CF1F920F920FB60F9208
:100B700011242F933F934F935F936F937F938F93A2
:100B80009F93AF93BF93CF93DF93EF93FF938091A6
:100B90006501C0916401D0E087FF24C010928500F8
:100BA00010928400809165018F5F80936501809130
:100BB0006501082E000C990B8C179D0724F4809179
:100BC00065018C30C4F18091840090918500049679
:100BD00080349C4908F47AC080918400909185000B
:100BE000049676C080916501082E000C990B8C1735
:100BF0009D07C4F6E09165018E2FEE0F990BFC0165
:100C0000EE0FFF1FE80FF91FEB58FE4F808186FFA4
:100C1000C9CFE09165018E2FEE0F990BFC01EE0F0D
:100C2000FF1FE80FF91FEB58FE4F808160E08F73C4
:100C30000E944701B7CF2091840030918500E09158
:100C400065018E2FEE0F990BFC01EE0FFF1FE80FD1
:100C5000F91FEB58FE4F81819281820F931F909371
:100C6000890080938800E09165018E2FEE0F990B2B
:100C7000FC01EE0FFF1FE80FF91FEB58FE4F8081BC
:100C800086FF11C0E09165018E2FEE0F990BFC01DC
:100C9000EE0FFF1FE80FF91FEB58FE4F808161E058
:100CA0008F730E944701FF91EF91DF91CF91BF9128
:100CB000AF919F918F917F916F915F914F913F91F4
:100CC0002F910F900FBE0F901F90189580E49CE914
:100CD00090938900809388008FEF80936501E3CF24
:100CE0001F920F920FB60F921124CF92DF92EF92C4
:100CF000FF920F931F932F933F934F935F936F93A5
:100D00007F938F939F93AF93BF93CF93DF93EF9393
:100D1000FF93C0906001D0906101E0906201F0907B
:100D20006301D701C601885A944EAF4FBF4F8093DD
:100D3000600190936101A0936201B09363010097F9
:100D4000A140B10508F458C0C0915E01D0915F0187
:100D5000209709F485C080917401811181C00E949F
:100D6000FF048EE00E94D0018C01909305018093D6
:100D700004018FE00E94D0019C01909303018093B5
:100D800002018091700181111DC0083C82E01807AA
:100D90000CF44BC08091710182FD05C080916F0100
:100DA000886180936F01283C82E038070CF44CC0C6
:100DB0008091710180FD06C0809173018F7B8068F6
:100DC000809373010E94AD0228EAC21A24EED20A6F
:100DD000E108F108C0926001D0926101E0926201E5
:100DE000F092630181E090E0CD2B11F090E080E083
:100DF00090935F0180935E01FF91EF91DF91CF911E
:100E0000BF91AF919F918F917F916F915F914F9122
:100E10003F912F911F910F91FF90EF90DF90CF9016
:100E20000F900FBE0F901F901895073311400CF0D4
:100E3000BACF8091710183FDB6CF90916F01977FFA
:100E4000906190936F01AFCF273331400CF0BACF50
:100E50008091710181FDB6CF80917301806CB0CF1C
:100E600080916F018F7E80936F01809173018F77E6
:100E7000A7CF789484B5826084BD84B5816084BD39
:100E800085B5826085BD85B5816085BD80916E0028
:100E9000816080936E001092810080918100826059
:100EA0008093810080918100816080938100809196
:100EB00080008160809380008091B1008460809385
:100EC000B1008091B00081608093B00080917A0081
:100ED000846080937A0080917A00826080937A00A7
:100EE00080917A00816080937A0080917A00806896
:100EF00080937A001092C10010926F0181E080937C
:100F0000730161E085E00E949F0161E086E00E943C
:100F10009F0161E087E00E949F0160E085E00E9400
:100F2000470160E086E00E94470160E087E00E94A0
:100F300047010E94AD0261E08CE00E949F0161E0E8
:100F400084E00E949F0161E082E00E949F0160E0D6
:100F500083E00E949F0161E082E00E94470161E01E
:100F60008CE00E94470164E670E080E090E00E941F
:100F700007021092730184E18093A90184E08093B9
:100F8000AA018093AB0182E08093AC018BE39DE0EA
:100F90000197F1F763E08CE991E00E940104CBE452
:100FA000D6E4CE010197F1F763E08CE991E00E946D
:100FB00001042197F1F763E08CE991E00E940104BC
:100FC00083E592E00197F1F762E08CE991E00E94FD
:100FD00001048091AA0140E068E2823008F460E2F6
:100FE0008CE991E00E949C046091AB01686040E054
:100FF0008CE991E00E949C040E94EE046091AC0197
:10100000646040E08CE991E00E949C0482E191E000
:101010000E94F40361E088E00E94C9048EE191E03F
:101020000E94F40368EB7BE080E090E00E940702FE
:1010300010927201F8941092B0001092B1001092C8
:10104000B2008FEF8093B3008091B10088608093ED
:10105000B1008091B10081608093B10080917000F7
:10106000826080937000789480916F018871809382
:101070006F01809199018C3008F043C061E08BE0F2
:101080000E949F0180919901282F30E0F901EE0F15
:10109000FF1FE20FF31FEB58FE4F9081907C9B6087
:1010A000908310929A0110929B012CE0622F0E9473
:1010B000880A90E0829FB001112430E020E0AB016B
:1010C000420F531FFA01EE0FFF1FE40FF51FEB58FD
:1010D000FE4F408146FD07C02F5F3F4F2C3031054A
:1010E00071F70E945002E09199018E2F90E0FC016F
:1010F000EE0FFF1FE80FF91FEB58FE4F8081806451
:10110000808384E690E00E948C006AEF70E080E0CB
:1011100090E00E940702E09199018E2F90E0FC017F
:10112000EE0FFF1FE80FF91FEB58FE4F80818F7BFA
:1011300080830E94C703CBE9DFE034E0632E712C8B
:1011400042E0842E912C53E0E52EF12CCC24C39464
:10115000D12C0FEF11E080E0A82E80E0B82E809116
:101160007401882309F484C010927401109305015E
:101170000093040110930301009302018091730115
:1011800081608093730155245394509272010E94A0
:10119000AD020E94990360ED77E080E090E00E944C
:1011A00007020E942E0368EE73E080E090E00E9448
:1011B00007020E94C7035092700180916F01877FE0
:1011C00080936F01809173018F7B809373010E94E4
:1011D000FF04F8948091710183FD17C050906F0156
:1011E000852D806180936F010E94AD02CE01019731
:1011F000F1F7852D8F7E80936F010E94AD02CE01A5
:101200000197F1F70E94FF04E5CF8091710180FD05
:1012100017C050907301852D8068809373010E94E0
:10122000AD02CE010197F1F7852D8F778093730181
:101230000E94AD02CE010197F1F70E94FF04E5CFB5
:10124000789468EC70E080E090E00E9407020E94D1
:10125000C3026CED75E080E090E00E9407021092FE
:101260007001A114B10409F47ACF0E94000073CF79
:101270008091710182958170809374018091040145
:1012800090910501883C22E092070CF455C08091B2
:10129000000190910101892B21F01092010110921F
:1012A00000018091020190910301883C22E09207A5
:1012B0000CF452C08091000190910101039721F03C
:1012C000F0920101E09200010E94EE0460E080E0F3
:1012D0000E94C90482E191E00E94F40361E080E091
:1012E0000E94C9048091000190910101009709F0CA
:1012F00043C086E291E00E94F40368EC70E080E075
:1013000090E00E94070280917301909172019923ED
:1013100009F446C08E7F809373011092720164EFCE
:1013200071E080E090E00E9407020E94AD0270929E
:1013300001016092000195CF873391400CF0B1CF4D
:101340008091000190910101019709F4AACFD092F8
:101350000101C0920001A5CF873391400CF0B4CFBA
:101360008091000190910101029709F4ADCF909214
:10137000010180920001A8CF8130910519F487E323
:1013800091E0B9CF8330910519F487E491E0B3CFB0
:10139000029719F483E591E0AECF8EE191E0ABCFF7
:1013A00081608093730181E080937201B8CF1092C5
:1013B0009F0110929E018AE091E090939D0180939D
:1013C0009C018AE08093A00189E08093A10188E0DC
:1013D0008093A20181E08093A30182E08093A40125
:1013E00083E08093A50184E08093A60185E080934B
:1013F000A70186E08093A80161E08AE00E949F0136
:1014000061E08091A1010E949F0161E08091A201B1
:101410000E949F01809164018C3098F491E0980FB4
:10142000909364018093990190E0FC01EE0FFF1FFF
:10143000E80FF91FEB58FE4F88EB9BE09283818306
:1014400008958FEF809399010895052E97FB1EF460
:1014500000940E943C0A57FD07D00E94570A07FCDF
:1014600003D04EF40C943C0A50954095309521954C
:101470003F4F4F4F5F4F08959095809570956195C0
:101480007F4F8F4F9F4F08950E94790AA59F900D1F
:10149000B49F900DA49F800D911D11240895B7FF56
:1014A0000C94440A0E94440A821B930B0895A1E203
:1014B0001A2EAA1BBB1BFD010DC0AA1FBB1FEE1FCE
:1014C000FF1FA217B307E407F50720F0A21BB30B19
:1014D000E40BF50B661F771F881F991F1A9469F795
:1014E00060957095809590959B01AC01BD01CF01F1
:1014F0000895A29FB001B39FC001A39F700D811DED
:101500001124911DB29F700D811D1124911D08950C
:10151000991B79E004C0991F961708F0961B881F45
:101520007A95C9F780950895EE0FFF1F0590F49105
:08153000E02D0994F894FFCFAF
:101538000400FF01FF0100000000F904F1004D0262
:101548004C025669676F2773204B6C6177004D27F3
:10155800536865656E004368617267696E67204607
:101568006F72776172640052657472656174696E36
:1015780067204261636B00476F696E672052696735
:0E158800687400476F696E67204C65667400DA
:00000001FF
